:1000000093C04FC1ACC0ABC0AAC0A9C0A8C0A7C014
:10001000A6C0D0C0A4C0A3C0A2C0A1C0A0C09FC0A1
:100020009EC09DC09CC06E616E00696E66000040FF
:100030007A10F35A00A0724E18090010A5D4E800F7
:1000400000E87648170000E40B54020000CA9A3B0F
:10005000000000E1F5050000809698000000404295
:100060000F000000A0860100000010270000000023
:10007000E803000000006400000000000A00000027
:1000800000000100000000002C76D888DC674F08D3
:1000900023DFC1DFAE59E1B1B796E5E3E453C63AD9
:1000A000E651997696E8E6C28426EB898C9B62ED50
:1000B000407C6FFCEFBC9C9F40F2BAA56FA5F4900A
:1000C000055A2AF75C936B6CF9676DC11BFCE0E481
:1000D0000D47FEF520E6B500D0ED902E03009435D7
:1000E00077050080841E080000204E0A000000C82A
:1000F0000C333333330F986E12831141EF8D21147B
:10010000893BE65516CFFEE6DB18D1844B381BF74A
:100110007C1D901DA4BBE424203284725E228100E9
:10012000C9F124ECA1E53D2711241FBECFE5D4E0A1
:10013000DEBFCDBF10E0A0E6B0E0E6E9F6E102C028
:1001400005900D92AC3BB107D9F710E0ACEBB0E0F5
:1001500001C01D92A83DB107E1F709D29ACA50CF5C
:1001600087B987ED86B9349BFECF84B190E045B165
:10017000342F20E0822B932B089583E0F1DFBC0124
:1001800080E090E02BD420E030E040E85AE3B4D4A3
:1001900020E038E341E955E4AFD420E030E04CE31F
:1001A00052E483D320E030E040EA50E4A5D4E5D324
:1001B000CB0108951F920F920FB60F9211242F9327
:1001C0008F939F938091CA009091CB00019690935A
:1001D000CB008093CA008091CA009091CB0023E0AD
:1001E000803D920709F055C08091D0009091D100D8
:1001F0008B33910554F48091D0009091D1000196F9
:100200009093D1008093D00040C01092D100109202
:10021000D0008091C8009091C9009093C500809350
:10022000C40081E090E09093C1008093C0001092E0
:10023000C9001092C8008091CE009091CF008B33FE
:10024000910554F48091CE009091CF000196909347
:10025000CF008093CE0019C01092CF001092CE0034
:100260008091CC009091CD008831910554F480911B
:10027000CC009091CD0001969093CD008093CC005E
:1002800004C01092CD001092CC001092CB001092BE
:10029000CA009F918F912F910F900FBE0F901F90CA
:1002A00018951F920F920FB60F9211242F933F9320
:1002B0004F935F936F937F938F939F93AF93BF936E
:1002C000EF93FF938091C8009091C900019690939D
:1002D000C9008093C80081E090E030D181E090E0D7
:1002E00010D18FE39FE10197F1F700C0000080E09B
:1002F00090E024D180E090E004D1FF91EF91BF9194
:10030000AF919F918F917F916F915F914F913F91AD
:100310002F910F900FBE0F901F901895C09A85E3F4
:100320008A95F1F70000C0980895CF93EFECF7E0BD
:100330003197F1F700C00000662311F0979A01C0D1
:100340009798BA9ABB9ABC9ABD9AC598C498C39814
:10035000C29887FDC59AC82F86FDC49AC5FDC39A69
:10036000C4FDC29ADBDFC598C498C398C298C3FD88
:10037000C59AC2FDC49AC1FDC39AC0FDC29ACEDF20
:10038000C29AC39AC49AC59ACF91089560E0CDDF0E
:100390000895662319F0613031F403C08058F6DF08
:1003A00008958054F3DF0895E82FE150E33028F4F6
:1003B000F0E0E854FF4F908101C090E08093D600B8
:1003C0001092D700892F8058E1DF08958A3061F4B8
:1003D0008091D6009091D7001816190614F480E089
:1003E00001C08F5FE1DF089561E09FDF0895CF9343
:1003F000DF93EC0101C0EADF89918823E1F7DF9107
:10040000CF910895CF93DF93CDB7DEB7C050D140E1
:100410000FB6F894DEBF0FBECDBFFE01EB5FFE4FFF
:1004200041915191CE0101966FEF70E09F01ABD8E1
:10043000CE010196DCDFC050DF4F0FB6F894DEBF6F
:100440000FBECDBFDF91CF9108951092D7001092CB
:10045000D60081E09BDF8FEC97E00197F1F700C0B9
:10046000000008951092D7001092D60082E08EDF2F
:1004700008958F9AB89ABA9ABB9ABC9ABD9A8FE798
:1004800098E3A1E081509040A040E1F700C0000057
:10049000C39AC29A43DFAFE3BFE11197F1F700C0FF
:1004A00000003CDF8FEF90E00197F1F700C0000003
:1004B000C29834DFAFE3BFE11197F1F700C000004D
:1004C00088E264DF2BDF8FE39FE10197F1F700C043
:1004D000000086E05BDF22DFAFE0B7E21197F1F7C3
:1004E00000C000008FE052DF19DF8FE097E2019734
:1004F000F1F700C00000B6DF08958D9A81E090E02A
:1005000008959093D3008093D200009711F0959AAC
:1005100001C0959881E090E008958091D20090917B
:10052000D300009719F080E090E002C081E090E0F5
:10053000E8DF08958E9A81E090E008959093D500C9
:100540008093D400009711F0969A01C0969881E0AC
:1005500090E008958091D4009091D500009719F013
:1005600080E090E002C081E090E0E8DF08958FEF46
:1005700099E6A8E181509040A040E1F700C000005A
:1005800086E886B917B88FEF93ECA9E081509040C8
:10059000A040E1F700C00000CDDFAFDF85B783608A
:1005A00085BF8BB780648BBF89B7816089BF83B7F4
:1005B000836083BF78941FBC80E293E097BD86BDC3
:1005C00089E18EBDB99A8FB582688FBD66B577B562
:1005D000C091B600D091B70080E090E0FFD16B01F0
:1005E0007C01BE01882777FD8095982FF9D19B016A
:1005F000AC01C701B60180D220E030E04AE754E404
:1006000054D1BBD1DC01CB019BBD8ABD8FEF93ECF4
:10061000A9E081509040A040E1F700C0000029DF30
:1006200014DF80E690E0E3DE8FEF9DE3A9E48150E4
:100630009040A040E1F700C0000005E010E087E82E
:10064000A82E80E0B82E8091D0009091D10080FD3E
:1006500088C093DD9093C7008093C6004091C60088
:100660005091C7008091B4009091B5002091B200E4
:100670003091B300820F931F4817590784F180917E
:10068000B6009091B7008B3091054CF08091B60088
:100690009091B70001979093B7008093B60066B52C
:1006A00077B5C091B600D091B70080E090E096D1C8
:1006B0006B017C01BE01882777FD8095982F90D132
:1006C0009B01AC01C701B60117D220E030E04AE738
:1006D00054E4EBD052D1DC01CB019BBD8ABD4091EB
:1006E000C6005091C7008091B4009091B500209150
:1006F000B2003091B300821B930B841795078CF1E5
:100700008091B6009091B700A1E08E359A074CF425
:100710008091B6009091B70001969093B7008093B6
:10072000B60066B577B5C091B600D091B70080E04D
:1007300090E054D16B017C01BE01882777FD809544
:10074000982F4ED19B01AC01C701B601D5D120E055
:1007500030E04AE754E4A9D010D1DC01CB019BBDC5
:100760008ABD80DE8091D0009091D10018161906C4
:100770000CF04DC08091D0009091D100B8018BD584
:10078000009709F044C06091C8007091C900C09101
:10079000D000D091D100882777FD8095982F20D167
:1007A00020E030E040E752E4A7D16B017C01BE01BC
:1007B000882777FD8095982F13D19B01AC01C70145
:1007C000B60173D0DAD0DC01CB019093C3008093E3
:1007D000C2006091C2007091C300882777FD8095A8
:1007E000982FFED09B01AC016091AE007091AF00DC
:1007F0008091B0009091B1007FD1DC01CB0180935A
:10080000BC009093BD00A093BE00B093BF002091A8
:10081000C2003091C3004091C6005091C700609162
:10082000D0007091D100C091C800D091C900C09093
:10083000B600D090B7008DB79EB740970FB6F8942A
:100840009EBF0FBE8DBFEDB7FEB73196ADB7BEB739
:100850001296BC92AE9211978091BC009091BD000F
:10086000A091BE00B091BF0082839383A483B5831F
:10087000378326835187408773876287D587C487EC
:10088000D786C686BFDD8FEF91EEA4E08150904001
:10089000A040E1F700C00000ADB7BEB750960FB65C
:1008A000F894BEBF0FBEADBFCECE0CD0EBC0E3D030
:1008B00040F0DAD030F021F45F3F19F0CCC0511194
:1008C00015C1CFC0F0D098F39923C9F35523B1F3E4
:1008D000951B550BBB27AA2762177307840738F0AF
:1008E0009F5F5F4F220F331F441FAA1FA9F333D00E
:1008F0000E2E3AF0E0E830D091505040E695001CC2
:10090000CAF729D0FE2F27D0660F771F881FBB1F7D
:10091000261737074807AB07B0E809F0BB0B802D57
:10092000BF01FF2793585F4F2AF09E3F510568F0A3
:1009300092C0DCC05F3FECF3983EDCF38695779580
:100940006795B795F7959F5FC9F7880F911D9695A5
:10095000879597F90895E1E0660F771F881FBB1F01
:10096000621773078407BA0720F0621B730B840BAE
:10097000BA0BEE1F88F7E095089504D06894B11182
:10098000B5C0089598D088F09F5790F0B92F992757
:10099000B751A0F0D1F0660F771F881F991F1AF08A
:1009A000BA95C9F712C0B13081F09FD0B1E0089577
:1009B0009CC0672F782F8827B85F39F0B93FCCF3F8
:1009C000869577956795B395D9F73EF49095809580
:1009D000709561957F4F8F4F9F4F0895E89409C0A0
:1009E00097FB3EF490958095709561957F4F8F4F62
:1009F0009F4F9923A9F0F92F96E9BB279395F69578
:100A0000879577956795B795F111F8CFFAF4BB0FF5
:100A100011F460FF1BC06F5F7F4F8F4F9F4F16C059
:100A2000882311F096E911C0772321F09EE8872FE3
:100A3000762F05C0662371F096E8862F70E060E09F
:100A40002AF09A95660F771F881FDAF7880F969518
:100A5000879597F9089597F99F6780E870E060E0BF
:100A600008959FEF80EC089500240A941616170647
:100A700018060906089500240A941216130614068F
:100A800005060895092E0394000C11F4882352F0F2
:100A9000BB0F40F4BF2B11F460FF04C06F5F7F4FAA
:100AA0008F4F9F4F089557FD9058440F551F59F091
:100AB0005F3F71F04795880F97FB991F61F09F3F4B
:100AC00079F087950895121613061406551FF2CF74
:100AD0004695F1DF08C0161617061806991FF1CFC4
:100AE00086957105610508940895E894BB276627EB
:100AF0007727CB0197F908950BD0C4CFB5DF28F045
:100B0000BADF18F0952309F0A6CFABCF1124EECFB2
:100B1000CADFA0F3959FD1F3950F50E0551F629F58
:100B2000F001729FBB27F00DB11D639FAA27F00D46
:100B3000B11DAA1F649F6627B00DA11D661F829F6D
:100B40002227B00DA11D621F739FB00DA11D621F52
:100B5000839FA00D611D221F749F3327A00D611D6F
:100B6000231F849F600D211D822F762F6A2F112451
:100B70009F5750408AF0E1F088234AF0EE0FFF1FA4
:100B8000BB1F661F771F881F91505040A9F79E3FDB
:100B9000510570F060CFAACF5F3FECF3983EDCF3D5
:100BA000869577956795B795F795E7959F5FC1F718
:100BB000FE2B880F911D9695879597F90895A5E1CD
:100BC000B0E0E4EEF5E07AC34C017F876E87FC016C
:100BD00017821682838181FD04C058C34C855D85D0
:100BE00004C01E010894211C311CF4019381EE8580
:100BF000FF8593FD859193FF8191FF87EE87882381
:100C000009F440C3853241F493FD859193FF8191AE
:100C1000FF87EE87853251F490E0B4014C8B5D8BF9
:100C200086D44C895D895D874C87D8CFFF24DD242D
:100C300010E01032B0F48B3269F08C3228F480323C
:100C400051F0833271F40BC08D3239F0803349F4A6
:100C500011602CC01260146029C0186027C0106198
:100C600025C017FD2EC0282F20532A3098F416FFD8
:100C700008C08F2D880FF82EFF0CFF0CF80EF20E17
:100C800015C08D2D880FD82EDD0CDD0CD80ED20EA0
:100C900010620CC08E3221F416FDF4C2106406C03E
:100CA0008C3611F4106802C0883659F4EE85FF8541
:100CB00093FD859193FF8191FF87EE87882309F04B
:100CC000B8CF982F9554933018F41061805E06C009
:100CD000982F9556933008F091C11F7E16FD02C0E3
:100CE000E6E0FE2E1F73853611F4106406C08636CA
:100CF00011F4106802C0F110FA9417FF07C0FBE36B
:100D0000FF1548F0EF2CE39427E00DC027E02F15E6
:100D100030F02F2D07C027E07CE3E72E04C027E04A
:100D200067E0F62EEE24CA0104969D878C87FA01AF
:100D30006081718182819381A1010E2D0AD35C01B2
:100D4000C9802C2D30E0398B288BC0FE03C0388938
:100D500033FF06C011FD06C012FF06C000E205C049
:100D60000DE203C00BE201C000E0888999898C7014
:100D700090700097C9F1002311F084E001C083E076
:100D80008D1550F4D81A13FD08C080E290E0B4012C
:100D9000CED3DA94D1F701C0DD24002321F0802FD7
:100DA00090E0B401C4D3888983FD05C03AE2E32E04
:100DB00030E0F32E10C026E2E22E20E0F22E0BC02F
:100DC0000115110509F0805290E0B401B0D30894E8
:100DD000E11CF11C04C0012F10E000711070F7013C
:100DE0008491882369F74BC217FF0EC0EA0CF8897B
:100DF000F4FF04C08A81813309F4EA941E144CF58F
:100E000028E02E1548F12CC016FD2AC08F2D90E049
:100E10008A159B0544F03CEFA3163FEFB3061CF088
:100E2000106801C0FA94FF2049F0E2E0F0E0EC0F16
:100E3000FD1FEF0DF11D80818033A1F317FF10C05E
:100E4000EF2CE3948F2D90E0A816B90644F4FA181D
:100E500007C0EE24E39404C098E0E92E01C0FF240B
:100E600017FF07C01A141B043CF495012F5F3F4F76
:100E700005C025E030E002C021E030E0002311F0A1
:100E80002F5F3F4FFF2029F08F2D90E00196280F14
:100E9000391F8D2D90E02817390714F4D21A01C09C
:100EA000DD24612E7724C30189709070009741F48E
:100EB00005C080E290E0B4013AD3DA94DD20C9F7AE
:100EC000002321F0802F90E0B40131D363FC08C0EF
:100ED00005C080E390E0B4012AD3DA94DD20C9F79D
:100EE00017FF46C08501B7FE02C000E010E066248F
:100EF000772495012E1931093B8B2A8B2501401A45
:100F0000510A420C531C6F2D70E0EE24FF24E61AA8
:100F1000F70A3FEF0F3F130721F48EE290E0B40190
:100F200006D3A016B10654F02A893B892017310751
:100F30002CF4F201E60DF71D818101C080E3015020
:100F400010400894611C711C0E151F0524F090E0E0
:100F5000B401EDD2DECF0A151B0541F49A81963318
:100F600020F4953319F4388934FF81E390E043C0CD
:100F70008A81813311F09FEEC92290E0B401D7D26B
:100F8000FF2079F08EE290E0B401D1D212E0F101BD
:100F9000E10FF11D1F5F808190E0B401C8D2FA9487
:100FA000B1F764FE03C085E490E002C085E690E0FE
:100FB000B401BDD2B7FC05C0A114B10441F4C4FE14
:100FC00006C0B094A194B108B3948DE201C08BE245
:100FD00090E0B401ACD280E305C08F5FE6EFFFEF95
:100FE000AE0EBF1EFAE0AF16B104BCF790E0B4013C
:100FF0009ED2C501C096B4019AD241C1833631F068
:10100000833789F0833509F055C021C09A012E5FDE
:101010003F4F3D872C87FA018081898381E0E82E4C
:10102000F12C510112C09A012E5F3F4F3D872C8752
:10103000FA01A080B18016FF03C06F2D70E002C0DE
:101040006FEF7FEFC50168D27C011F7713C09A0153
:101050002E5F3F4F3D872C87FA01A080B18016FF9D
:1010600003C06F2D70E002C06FEF7FEFC50149D262
:101070007C01106813FD1AC005C080E290E0B40145
:1010800056D2DA948D2D90E0E816F906B0F30EC032
:10109000F50117FD859117FF81915F0190E0B40183
:1010A00046D2D110DA940894E108F108E114F10471
:1010B00079F7E5C0843611F0893669F59A0117FF92
:1010C0000AC02C5F3F4F3D872C87FA0180819181B8
:1010D000A281B3810BC02E5F3F4F3D872C87FA0161
:1010E00080819181AA2797FDA095BA2F012F0F76B5
:1010F000B7FF08C0B095A095909581959F4FAF4FD1
:10110000BF4F0068BC01CD01A1012AE030E063D2ED
:10111000E82EE21840C0853721F41F7E2AE030E037
:1011200020C0197F8F36A9F0803720F4883509F068
:10113000A9C00BC0803721F0883709F0A3C001C0D7
:10114000106114FF09C0146007C014FF08C01660C6
:1011500006C028E030E005C020E130E002C020E118
:1011600032E0CA0117FF09C004969D878C87FA01F7
:10117000608171818281938108C002969D878C87EE
:10118000FA016081718180E090E0A10124D2E82E13
:10119000E218012F0F7706FF09C00E7FEF1430F41D
:1011A00004FF06C002FD04C00F7E02C01E2D01C058
:1011B0001F2D802F90E004FF0CC0FE01EE0DF11DED
:1011C0002081203311F4097E09C002FF06C01E5F92
:1011D00005C086789070009709F01F5FA02EBB2491
:1011E00003FD11C000FF0CC0FE2C1D1548F4FD0CC2
:1011F000F11A1D2D05C080E290E0B40198D11F5F67
:101200001D15C8F304C01D1510F4D11A01C0DD244A
:10121000A4FE0EC080E390E0B40189D1A2FE1DC0FF
:10122000A1FE03C088E590E010C088E790E00DC003
:10123000C50186789070009781F0A1FC02C080E221
:1012400001C08BE207FD8DE290E0B40170D105C0D2
:1012500080E390E0B4016BD1FA94EF14C8F3EA9400
:10126000F101EE0DF11D808190E0B40160D1EE201E
:10127000B1F705C080E290E0B40159D1DA94DD20E5
:10128000C9F7ACCCF4018681978102C08FEF9FEF44
:101290006596E2E12FC097FB092E07260AD077FD5D
:1012A00004D043D006D000201AF4709561957F4F8A
:1012B0000895F6F7909581959F4F08952F923F924C
:1012C0004F925F926F927F928F929F92AF92BF9256
:1012D000CF92DF92EF92FF920F931F93CF93DF9302
:1012E000CDB7DEB7CA1BDB0B0FB6F894DEBF0FBE5F
:1012F000CDBF09942A88398848885F846E847D84AC
:101300008C849B84AA84B984C884DF80EE80FD80AD
:101310000C811B81AA81B981CE0FD11D0FB6F89423
:10132000DEBF0FBECDBFED010895AA1BBB1B51E16F
:1013300007C0AA1FBB1FA617B70710F0A61BB70B45
:10134000881F991F5A95A9F780959095BC01CD01EA
:101350000895283008F027E03327DA01990F311D6E
:1013600087FD916000966105710539F432602E5F4A
:101370003D9330E32A95E1F708959F3F30F08038A0
:101380007105610509F03C5F3C5F3D93913008F0C9
:101390008068911DDF93CF931F930F93FF92EF927D
:1013A000192F987F9695E92F96959695E90FFF2727
:1013B000E857FF4F99273327EE24FF24A701E701C1
:1013C00005900894079428F4360FE71EF81E491F6D
:1013D000511D660F771F881F991F0694A1F705906E
:1013E000079428F4E70EF81E491F561FC11D770FFA
:1013F000881F991F661F0694A1F70590079428F48B
:10140000F80E491F561FC71FD11D880F991F661F51
:10141000771F0694A1F70590079420F4490F561FF3
:10142000C71FD81F990F661F771F881F0694A9F73B
:1014300084911095177041F0D695C79557954795AB
:10144000F794E7941A95C1F7EEE2F0E068941590EE
:10145000159135916591959105907FE27395E1180D
:10146000F10A430B560BC90BD009C0F7E10CF11E72
:10147000431F561FC91FD01D7EF4703311F48A9587
:10148000E6CFE894015030F0080F0AF40027021765
:1014900008F4202F2395022F7A3328F079E37D93E7
:1014A0002A95E9F710C07D932A9589F606949795B9
:1014B0006795379517951794E118F10A430B560B6A
:1014C000C90BD00998F023957E9173957A3308F073
:1014D00070E37C932013B8F77E9170617D9330F0B8
:1014E000839571E37D9370E32A95E1F71124EF90E2
:1014F000FF900F911F91CF91DF91992787FD9095D4
:101500000895FC010590615070400110D8F7809556
:1015100090958E0F9F1F0895FC01615070400190BF
:101520000110D8F7809590958E0F9F1F08950F9307
:101530001F93CF93DF938C01EB018B8181FF1BC045
:1015400082FF0DC02E813F818C819D812817390734
:1015500064F4E881F9810193F983E88306C0E885A2
:10156000F985802F0995009731F48E819F8101962E
:101570009F838E8302C00FEF1FEFC801DF91CF91D1
:101580001F910F910895AEE0B0E0E8ECFAE0A4CE30
:101590008C0186E08C831A83098377FF02C060E0A8
:1015A00070E8615070407E836D83CE010196BA0170
:1015B000A90105DB4D815E8157FD0AC02F81388569
:1015C000421753070CF49A01020F131FF8011082FF
:1015D0002E96E4E09DCEFA01AA27283051F1203161
:1015E00081F1E8946F936E7F6E5F7F4F8F4F9F4FB7
:1015F000AF4FB1E03ED0B4E03CD0670F781F891FF9
:101600009A1FA11D680F791F8A1F911DA11D6A0FC6
:10161000711D811D911DA11D20D009F468943F9179
:101620002AE0269F11243019305D3193DEF6CF0178
:101630000895462F4770405D4193B3E00FD0C9F73E
:10164000F6CF462F4F70405D4A3318F0495D31FDAB
:101650004052419302D0A9F7EACFB4E0A6959795FE
:10166000879577956795BA95C9F7009761057105D4
:1016700008959B01AC010A2E06945795479537951E
:101680002795BA95C9F7620F731F841F951FA01D78
:061690000895F894FFCF5D
:1016960047656967657220446F73696D6574657225
:1016A60020200A706F636B65746D616769632E6EC7
:1016B6006574202020200025322E32667553766808
:1016C60020256443504D20202020200A25645620E2
:1016D6002564732025642025642020202000A69BF5
:0C16E600C43B05009001FE0040145400BD
:00000001FF
